{
	"data": {
		"bytecode": {
			"linkReferences": {},
			"object": "608060405234801561000f575f80fd5b505f80546001600160a01b031916331790556110658061002e5f395ff3fe608060405234801561000f575f80fd5b5060043610610090575f3560e01c80639cf5c613116100635780639cf5c613146100f6578063a9e5ec9014610109578063cb6d123614610112578063f2fde38b1461011a578063ffc9896b1461012d575f80fd5b80631105a5eb14610094578063155b1d98146100a95780631cd896c1146100c45780638da5cb5b146100cc575b5f80fd5b6100a76100a2366004610c45565b610153565b005b6100b1600381565b6040519081526020015b60405180910390f35b6100b1602081565b5f546100de906001600160a01b031681565b6040516001600160a01b0390911681526020016100bb565b6100a7610104366004610cf3565b6106fc565b6100b161020081565b6100b1606481565b6100a7610128366004610d2c565b610802565b61014061013b366004610d2c565b6108d9565b6040516100bb9796959493929190610d8f565b5f82828080601f0160208091040260200160405190810160405280939291908181526020018383808284375f92019190915250508251929350505061020010156101d35760405162461bcd60e51b815260206004820152600c60248201526b62696f20746f6f206c6f6e6760a01b60448201526064015b60405180910390fd5b5f6101de8484610af0565b905060648111156102225760405162461bcd60e51b815260206004820152600e60248201526d746f6f206d616e7920776f72647360901b60448201526064016101ca565b5f86868080601f0160208091040260200160405190810160405280939291908181526020018383808284375f9201919091525050825192935050901590506103cc57600381511015801561027857506020815111155b6102b65760405162461bcd60e51b815260206004820152600f60248201526e0eae6cae4dcc2daca40d8cadccee8d608b1b60448201526064016101ca565b5f5b81518110156103ca575f8282815181106102d4576102d4610e00565b01602001516001600160f81b03191690505f606160f81b82108015906103085750603d60f91b6001600160f81b0319831611155b90505f600360fc1b6001600160f81b03198416108015906103375750603960f81b6001600160f81b0319841611155b90505f605f60f81b6001600160f81b0319851614806103635750601760f91b6001600160f81b03198516145b9050828061036e5750815b806103765750805b6103b35760405162461bcd60e51b815260206004820152600e60248201526d757365726e616d6520636861727360901b60448201526064016101ca565b5050505080806103c290610e14565b9150506102b8565b505b5f808251116103db575f6103e3565b815160208301205b90508015610456575f818152600260205260409020546001600160a01b031680158061041757506001600160a01b03811633145b6104545760405162461bcd60e51b815260206004820152600e60248201526d3ab9b2b93730b6b2903a30b5b2b760911b60448201526064016101ca565b505b335f9081526001602052604090205460ff161561056157335f908152600160205260408120600201805461048990610e38565b80601f01602080910402602001604051908101604052809291908181526020018280546104b590610e38565b80156105005780601f106104d757610100808354040283529160200191610500565b820191905f5260205f20905b8154815290600101906020018083116104e357829003601f168201915b505050505090505f8151111561055f578051602082012082811480159061053c57505f818152600260205260409020546001600160a01b031633145b1561055d575f81815260026020526040902080546001600160a01b03191690555b505b505b335f9081526001602052604090205460ff166105ef57335f81815260016020819052604091829020805460ff19169091178155600401805467ffffffffffffffff19164267ffffffffffffffff16179055517f92822564bab8864c3a47b34e8d23fbce5c46234eb5da261f94087b995ac0f33b906105e6908d908d908d908d90610e98565b60405180910390a25b335f9081526001602081905260409091200161060c8a8c83610f2b565b50335f908152600160205260409020600201610629888a83610f2b565b50335f908152600160205260409020600301610646868883610f2b565b50335f90815260016020526040902060040180546fffffffffffffffff00000000000000001916600160401b4267ffffffffffffffff160217905580156106a5575f81815260026020526040902080546001600160a01b031916331790555b336001600160a01b03167f6420daf1b58438e85465ef21dee378d307a509caab491149e3f066c5caf1266d8b8b8b8b8b8b6040516106e896959493929190610fe7565b60405180910390a250505050505050505050565b5f546001600160a01b031633146107415760405162461bcd60e51b81526020600482015260096024820152683737ba1037bbb732b960b91b60448201526064016101ca565b6001600160a01b0382165f9081526001602052604090205460ff166107995760405162461bcd60e51b815260206004820152600e60248201526d1d5cd95c881b9bdd08199bdd5b9960921b60448201526064016101ca565b6001600160a01b0382165f818152600160205260409081902080548415156101000261ff0019909116179055517e255232b9c7545c95a579e3b4ed6b224bcadd569379c69d9715d500ed93da38906107f690841515815260200190565b60405180910390a25050565b5f546001600160a01b031633146108475760405162461bcd60e51b81526020600482015260096024820152683737ba1037bbb732b960b91b60448201526064016101ca565b6001600160a01b03811661088a5760405162461bcd60e51b815260206004820152600a6024820152693d32b9379037bbb732b960b11b60448201526064016101ca565b5f80546001600160a01b038381166001600160a01b0319831681178455604051919092169283917f8be0079c531659141344cd1fd0a4f28419497f9722a3daafe3b4186f6b6457e09190a35050565b6001600160a01b0381165f90815260016020819052604082208054600482015492820180548594606094859485948894859460ff8085169461010090041692916002860191600387019167ffffffffffffffff80831692600160401b90041690859061094490610e38565b80601f016020809104026020016040519081016040528092919081815260200182805461097090610e38565b80156109bb5780601f10610992576101008083540402835291602001916109bb565b820191905f5260205f20905b81548152906001019060200180831161099e57829003601f168201915b505050505094508380546109ce90610e38565b80601f01602080910402602001604051908101604052809291908181526020018280546109fa90610e38565b8015610a455780601f10610a1c57610100808354040283529160200191610a45565b820191905f5260205f20905b815481529060010190602001808311610a2857829003601f168201915b50505050509350828054610a5890610e38565b80601f0160208091040260200160405190810160405280929190818152602001828054610a8490610e38565b8015610acf5780601f10610aa657610100808354040283529160200191610acf565b820191905f5260205f20905b815481529060010190602001808311610ab257829003601f168201915b50505050509250975097509750975097509750975050919395979092949650565b5f828280808403610b06575f9350505050610bfa565b5f805f5b83811015610bf1575f868683818110610b2557610b25610e00565b909101356001600160f81b03191691505f9050600160fd1b821480610b575750600560f91b6001600160f81b03198316145b80610b6f5750600d60f81b6001600160f81b03198316145b80610b875750600960f81b6001600160f81b03198316145b905080158015610b95575083155b15610bc9576001935084610ba881610e14565b9550506064851115610bc4578498505050505050505050610bfa565b610bdc565b808015610bd35750835b15610bdc575f93505b50508080610be990610e14565b915050610b0a565b50909450505050505b92915050565b5f8083601f840112610c10575f80fd5b50813567ffffffffffffffff811115610c27575f80fd5b602083019150836020828501011115610c3e575f80fd5b9250929050565b5f805f805f8060608789031215610c5a575f80fd5b863567ffffffffffffffff80821115610c71575f80fd5b610c7d8a838b01610c00565b90985096506020890135915080821115610c95575f80fd5b610ca18a838b01610c00565b90965094506040890135915080821115610cb9575f80fd5b50610cc689828a01610c00565b979a9699509497509295939492505050565b80356001600160a01b0381168114610cee575f80fd5b919050565b5f8060408385031215610d04575f80fd5b610d0d83610cd8565b915060208301358015158114610d21575f80fd5b809150509250929050565b5f60208284031215610d3c575f80fd5b610d4582610cd8565b9392505050565b5f81518084525f5b81811015610d7057602081850181015186830182015201610d54565b505f602082860101526020601f19601f83011685010191505092915050565b8715158152861515602082015260e060408201525f610db160e0830188610d4c565b8281036060840152610dc38188610d4c565b90508281036080840152610dd78187610d4c565b91505067ffffffffffffffff80851660a084015280841660c08401525098975050505050505050565b634e487b7160e01b5f52603260045260245ffd5b5f60018201610e3157634e487b7160e01b5f52601160045260245ffd5b5060010190565b600181811c90821680610e4c57607f821691505b602082108103610e6a57634e487b7160e01b5f52602260045260245ffd5b50919050565b81835281816020850137505f828201602090810191909152601f909101601f19169091010190565b604081525f610eab604083018688610e70565b8281036020840152610ebe818587610e70565b979650505050505050565b634e487b7160e01b5f52604160045260245ffd5b601f821115610f26575f81815260208120601f850160051c81016020861015610f035750805b601f850160051c820191505b81811015610f2257828155600101610f0f565b5050505b505050565b67ffffffffffffffff831115610f4357610f43610ec9565b610f5783610f518354610e38565b83610edd565b5f601f841160018114610f88575f8515610f715750838201355b5f19600387901b1c1916600186901b178355610fe0565b5f83815260209020601f19861690835b82811015610fb85786850135825560209485019460019092019101610f98565b5086821015610fd4575f1960f88860031b161c19848701351681555b505060018560011b0183555b5050505050565b606081525f610ffa60608301888a610e70565b828103602084015261100d818789610e70565b90508281036040840152611022818587610e70565b999850505050505050505056fea264697066735822122026390bc9738e8fb32d99e4363f811f08a9eb95b190ff8e8e988ad6c0d65b1b0064736f6c63430008140033",
			"opcodes": "PUSH1 0x80 PUSH1 0x40 MSTORE CALLVALUE DUP1 ISZERO PUSH2 0xF JUMPI PUSH0 DUP1 REVERT JUMPDEST POP PUSH0 DUP1 SLOAD PUSH1 0x1 PUSH1 0x1 PUSH1 0xA0 SHL SUB NOT AND CALLER OR SWAP1 SSTORE PUSH2 0x1065 DUP1 PUSH2 0x2E PUSH0 CODECOPY PUSH0 RETURN INVALID PUSH1 0x80 PUSH1 0x40 MSTORE CALLVALUE DUP1 ISZERO PUSH2 0xF JUMPI PUSH0 DUP1 REVERT JUMPDEST POP PUSH1 0x4 CALLDATASIZE LT PUSH2 0x90 JUMPI PUSH0 CALLDATALOAD PUSH1 0xE0 SHR DUP1 PUSH4 0x9CF5C613 GT PUSH2 0x63 JUMPI DUP1 PUSH4 0x9CF5C613 EQ PUSH2 0xF6 JUMPI DUP1 PUSH4 0xA9E5EC90 EQ PUSH2 0x109 JUMPI DUP1 PUSH4 0xCB6D1236 EQ PUSH2 0x112 JUMPI DUP1 PUSH4 0xF2FDE38B EQ PUSH2 0x11A JUMPI DUP1 PUSH4 0xFFC9896B EQ PUSH2 0x12D JUMPI PUSH0 DUP1 REVERT JUMPDEST DUP1 PUSH4 0x1105A5EB EQ PUSH2 0x94 JUMPI DUP1 PUSH4 0x155B1D98 EQ PUSH2 0xA9 JUMPI DUP1 PUSH4 0x1CD896C1 EQ PUSH2 0xC4 JUMPI DUP1 PUSH4 0x8DA5CB5B EQ PUSH2 0xCC JUMPI JUMPDEST PUSH0 DUP1 REVERT JUMPDEST PUSH2 0xA7 PUSH2 0xA2 CALLDATASIZE PUSH1 0x4 PUSH2 0xC45 JUMP JUMPDEST PUSH2 0x153 JUMP JUMPDEST STOP JUMPDEST PUSH2 0xB1 PUSH1 0x3 DUP2 JUMP JUMPDEST PUSH1 0x40 MLOAD SWAP1 DUP2 MSTORE PUSH1 0x20 ADD JUMPDEST PUSH1 0x40 MLOAD DUP1 SWAP2 SUB SWAP1 RETURN JUMPDEST PUSH2 0xB1 PUSH1 0x20 DUP2 JUMP JUMPDEST PUSH0 SLOAD PUSH2 0xDE SWAP1 PUSH1 0x1 PUSH1 0x1 PUSH1 0xA0 SHL SUB AND DUP2 JUMP JUMPDEST PUSH1 0x40 MLOAD PUSH1 0x1 PUSH1 0x1 PUSH1 0xA0 SHL SUB SWAP1 SWAP2 AND DUP2 MSTORE PUSH1 0x20 ADD PUSH2 0xBB JUMP JUMPDEST PUSH2 0xA7 PUSH2 0x104 CALLDATASIZE PUSH1 0x4 PUSH2 0xCF3 JUMP JUMPDEST PUSH2 0x6FC JUMP JUMPDEST PUSH2 0xB1 PUSH2 0x200 DUP2 JUMP JUMPDEST PUSH2 0xB1 PUSH1 0x64 DUP2 JUMP JUMPDEST PUSH2 0xA7 PUSH2 0x128 CALLDATASIZE PUSH1 0x4 PUSH2 0xD2C JUMP JUMPDEST PUSH2 0x802 JUMP JUMPDEST PUSH2 0x140 PUSH2 0x13B CALLDATASIZE PUSH1 0x4 PUSH2 0xD2C JUMP JUMPDEST PUSH2 0x8D9 JUMP JUMPDEST PUSH1 0x40 MLOAD PUSH2 0xBB SWAP8 SWAP7 SWAP6 SWAP5 SWAP4 SWAP3 SWAP2 SWAP1 PUSH2 0xD8F JUMP JUMPDEST PUSH0 DUP3 DUP3 DUP1 DUP1 PUSH1 0x1F ADD PUSH1 0x20 DUP1 SWAP2 DIV MUL PUSH1 0x20 ADD PUSH1 0x40 MLOAD SWAP1 DUP2 ADD PUSH1 0x40 MSTORE DUP1 SWAP4 SWAP3 SWAP2 SWAP1 DUP2 DUP2 MSTORE PUSH1 0x20 ADD DUP4 DUP4 DUP1 DUP3 DUP5 CALLDATACOPY PUSH0 SWAP3 ADD SWAP2 SWAP1 SWAP2 MSTORE POP POP DUP3 MLOAD SWAP3 SWAP4 POP POP POP PUSH2 0x200 LT ISZERO PUSH2 0x1D3 JUMPI PUSH1 0x40 MLOAD PUSH3 0x461BCD PUSH1 0xE5 SHL DUP2 MSTORE PUSH1 0x20 PUSH1 0x4 DUP3 ADD MSTORE PUSH1 0xC PUSH1 0x24 DUP3 ADD MSTORE PUSH12 0x62696F20746F6F206C6F6E67 PUSH1 0xA0 SHL PUSH1 0x44 DUP3 ADD MSTORE PUSH1 0x64 ADD JUMPDEST PUSH1 0x40 MLOAD DUP1 SWAP2 SUB SWAP1 REVERT JUMPDEST PUSH0 PUSH2 0x1DE DUP5 DUP5 PUSH2 0xAF0 JUMP JUMPDEST SWAP1 POP PUSH1 0x64 DUP2 GT ISZERO PUSH2 0x222 JUMPI PUSH1 0x40 MLOAD PUSH3 0x461BCD PUSH1 0xE5 SHL DUP2 MSTORE PUSH1 0x20 PUSH1 0x4 DUP3 ADD MSTORE PUSH1 0xE PUSH1 0x24 DUP3 ADD MSTORE PUSH14 0x746F6F206D616E7920776F726473 PUSH1 0x90 SHL PUSH1 0x44 DUP3 ADD MSTORE PUSH1 0x64 ADD PUSH2 0x1CA JUMP JUMPDEST PUSH0 DUP7 DUP7 DUP1 DUP1 PUSH1 0x1F ADD PUSH1 0x20 DUP1 SWAP2 DIV MUL PUSH1 0x20 ADD PUSH1 0x40 MLOAD SWAP1 DUP2 ADD PUSH1 0x40 MSTORE DUP1 SWAP4 SWAP3 SWAP2 SWAP1 DUP2 DUP2 MSTORE PUSH1 0x20 ADD DUP4 DUP4 DUP1 DUP3 DUP5 CALLDATACOPY PUSH0 SWAP3 ADD SWAP2 SWAP1 SWAP2 MSTORE POP POP DUP3 MLOAD SWAP3 SWAP4 POP POP SWAP1 ISZERO SWAP1 POP PUSH2 0x3CC JUMPI PUSH1 0x3 DUP2 MLOAD LT ISZERO DUP1 ISZERO PUSH2 0x278 JUMPI POP PUSH1 0x20 DUP2 MLOAD GT ISZERO JUMPDEST PUSH2 0x2B6 JUMPI PUSH1 0x40 MLOAD PUSH3 0x461BCD PUSH1 0xE5 SHL DUP2 MSTORE PUSH1 0x20 PUSH1 0x4 DUP3 ADD MSTORE PUSH1 0xF PUSH1 0x24 DUP3 ADD MSTORE PUSH15 0xEAE6CAE4DCC2DACA40D8CADCCEE8D PUSH1 0x8B SHL PUSH1 0x44 DUP3 ADD MSTORE PUSH1 0x64 ADD PUSH2 0x1CA JUMP JUMPDEST PUSH0 JUMPDEST DUP2 MLOAD DUP2 LT ISZERO PUSH2 0x3CA JUMPI PUSH0 DUP3 DUP3 DUP2 MLOAD DUP2 LT PUSH2 0x2D4 JUMPI PUSH2 0x2D4 PUSH2 0xE00 JUMP JUMPDEST ADD PUSH1 0x20 ADD MLOAD PUSH1 0x1 PUSH1 0x1 PUSH1 0xF8 SHL SUB NOT AND SWAP1 POP PUSH0 PUSH1 0x61 PUSH1 0xF8 SHL DUP3 LT DUP1 ISZERO SWAP1 PUSH2 0x308 JUMPI POP PUSH1 0x3D PUSH1 0xF9 SHL PUSH1 0x1 PUSH1 0x1 PUSH1 0xF8 SHL SUB NOT DUP4 AND GT ISZERO JUMPDEST SWAP1 POP PUSH0 PUSH1 0x3 PUSH1 0xFC SHL PUSH1 0x1 PUSH1 0x1 PUSH1 0xF8 SHL SUB NOT DUP5 AND LT DUP1 ISZERO SWAP1 PUSH2 0x337 JUMPI POP PUSH1 0x39 PUSH1 0xF8 SHL PUSH1 0x1 PUSH1 0x1 PUSH1 0xF8 SHL SUB NOT DUP5 AND GT ISZERO JUMPDEST SWAP1 POP PUSH0 PUSH1 0x5F PUSH1 0xF8 SHL PUSH1 0x1 PUSH1 0x1 PUSH1 0xF8 SHL SUB NOT DUP6 AND EQ DUP1 PUSH2 0x363 JUMPI POP PUSH1 0x17 PUSH1 0xF9 SHL PUSH1 0x1 PUSH1 0x1 PUSH1 0xF8 SHL SUB NOT DUP6 AND EQ JUMPDEST SWAP1 POP DUP3 DUP1 PUSH2 0x36E JUMPI POP DUP2 JUMPDEST DUP1 PUSH2 0x376 JUMPI POP DUP1 JUMPDEST PUSH2 0x3B3 JUMPI PUSH1 0x40 MLOAD PUSH3 0x461BCD PUSH1 0xE5 SHL DUP2 MSTORE PUSH1 0x20 PUSH1 0x4 DUP3 ADD MSTORE PUSH1 0xE PUSH1 0x24 DUP3 ADD MSTORE PUSH14 0x757365726E616D65206368617273 PUSH1 0x90 SHL PUSH1 0x44 DUP3 ADD MSTORE PUSH1 0x64 ADD PUSH2 0x1CA JUMP JUMPDEST POP POP POP POP DUP1 DUP1 PUSH2 0x3C2 SWAP1 PUSH2 0xE14 JUMP JUMPDEST SWAP2 POP POP PUSH2 0x2B8 JUMP JUMPDEST POP JUMPDEST PUSH0 DUP1 DUP3 MLOAD GT PUSH2 0x3DB JUMPI PUSH0 PUSH2 0x3E3 JUMP JUMPDEST DUP2 MLOAD PUSH1 0x20 DUP4 ADD KECCAK256 JUMPDEST SWAP1 POP DUP1 ISZERO PUSH2 0x456 JUMPI PUSH0 DUP2 DUP2 MSTORE PUSH1 0x2 PUSH1 0x20 MSTORE PUSH1 0x40 SWAP1 KECCAK256 SLOAD PUSH1 0x1 PUSH1 0x1 PUSH1 0xA0 SHL SUB AND DUP1 ISZERO DUP1 PUSH2 0x417 JUMPI POP PUSH1 0x1 PUSH1 0x1 PUSH1 0xA0 SHL SUB DUP2 AND CALLER EQ JUMPDEST PUSH2 0x454 JUMPI PUSH1 0x40 MLOAD PUSH3 0x461BCD PUSH1 0xE5 SHL DUP2 MSTORE PUSH1 0x20 PUSH1 0x4 DUP3 ADD MSTORE PUSH1 0xE PUSH1 0x24 DUP3 ADD MSTORE PUSH14 0x3AB9B2B93730B6B2903A30B5B2B7 PUSH1 0x91 SHL PUSH1 0x44 DUP3 ADD MSTORE PUSH1 0x64 ADD PUSH2 0x1CA JUMP JUMPDEST POP JUMPDEST CALLER PUSH0 SWAP1 DUP2 MSTORE PUSH1 0x1 PUSH1 0x20 MSTORE PUSH1 0x40 SWAP1 KECCAK256 SLOAD PUSH1 0xFF AND ISZERO PUSH2 0x561 JUMPI CALLER PUSH0 SWAP1 DUP2 MSTORE PUSH1 0x1 PUSH1 0x20 MSTORE PUSH1 0x40 DUP2 KECCAK256 PUSH1 0x2 ADD DUP1 SLOAD PUSH2 0x489 SWAP1 PUSH2 0xE38 JUMP JUMPDEST DUP1 PUSH1 0x1F ADD PUSH1 0x20 DUP1 SWAP2 DIV MUL PUSH1 0x20 ADD PUSH1 0x40 MLOAD SWAP1 DUP2 ADD PUSH1 0x40 MSTORE DUP1 SWAP3 SWAP2 SWAP1 DUP2 DUP2 MSTORE PUSH1 0x20 ADD DUP3 DUP1 SLOAD PUSH2 0x4B5 SWAP1 PUSH2 0xE38 JUMP JUMPDEST DUP1 ISZERO PUSH2 0x500 JUMPI DUP1 PUSH1 0x1F LT PUSH2 0x4D7 JUMPI PUSH2 0x100 DUP1 DUP4 SLOAD DIV MUL DUP4 MSTORE SWAP2 PUSH1 0x20 ADD SWAP2 PUSH2 0x500 JUMP JUMPDEST DUP3 ADD SWAP2 SWAP1 PUSH0 MSTORE PUSH1 0x20 PUSH0 KECCAK256 SWAP1 JUMPDEST DUP2 SLOAD DUP2 MSTORE SWAP1 PUSH1 0x1 ADD SWAP1 PUSH1 0x20 ADD DUP1 DUP4 GT PUSH2 0x4E3 JUMPI DUP3 SWAP1 SUB PUSH1 0x1F AND DUP3 ADD SWAP2 JUMPDEST POP POP POP POP POP SWAP1 POP PUSH0 DUP2 MLOAD GT ISZERO PUSH2 0x55F JUMPI DUP1 MLOAD PUSH1 0x20 DUP3 ADD KECCAK256 DUP3 DUP2 EQ DUP1 ISZERO SWAP1 PUSH2 0x53C JUMPI POP PUSH0 DUP2 DUP2 MSTORE PUSH1 0x2 PUSH1 0x20 MSTORE PUSH1 0x40 SWAP1 KECCAK256 SLOAD PUSH1 0x1 PUSH1 0x1 PUSH1 0xA0 SHL SUB AND CALLER EQ JUMPDEST ISZERO PUSH2 0x55D JUMPI PUSH0 DUP2 DUP2 MSTORE PUSH1 0x2 PUSH1 0x20 MSTORE PUSH1 0x40 SWAP1 KECCAK256 DUP1 SLOAD PUSH1 0x1 PUSH1 0x1 PUSH1 0xA0 SHL SUB NOT AND SWAP1 SSTORE JUMPDEST POP JUMPDEST POP JUMPDEST CALLER PUSH0 SWAP1 DUP2 MSTORE PUSH1 0x1 PUSH1 0x20 MSTORE PUSH1 0x40 SWAP1 KECCAK256 SLOAD PUSH1 0xFF AND PUSH2 0x5EF JUMPI CALLER PUSH0 DUP2 DUP2 MSTORE PUSH1 0x1 PUSH1 0x20 DUP2 SWAP1 MSTORE PUSH1 0x40 SWAP2 DUP3 SWAP1 KECCAK256 DUP1 SLOAD PUSH1 0xFF NOT AND SWAP1 SWAP2 OR DUP2 SSTORE PUSH1 0x4 ADD DUP1 SLOAD PUSH8 0xFFFFFFFFFFFFFFFF NOT AND TIMESTAMP PUSH8 0xFFFFFFFFFFFFFFFF AND OR SWAP1 SSTORE MLOAD PUSH32 0x92822564BAB8864C3A47B34E8D23FBCE5C46234EB5DA261F94087B995AC0F33B SWAP1 PUSH2 0x5E6 SWAP1 DUP14 SWAP1 DUP14 SWAP1 DUP14 SWAP1 DUP14 SWAP1 PUSH2 0xE98 JUMP JUMPDEST PUSH1 0x40 MLOAD DUP1 SWAP2 SUB SWAP1 LOG2 JUMPDEST CALLER PUSH0 SWAP1 DUP2 MSTORE PUSH1 0x1 PUSH1 0x20 DUP2 SWAP1 MSTORE PUSH1 0x40 SWAP1 SWAP2 KECCAK256 ADD PUSH2 0x60C DUP11 DUP13 DUP4 PUSH2 0xF2B JUMP JUMPDEST POP CALLER PUSH0 SWAP1 DUP2 MSTORE PUSH1 0x1 PUSH1 0x20 MSTORE PUSH1 0x40 SWAP1 KECCAK256 PUSH1 0x2 ADD PUSH2 0x629 DUP9 DUP11 DUP4 PUSH2 0xF2B JUMP JUMPDEST POP CALLER PUSH0 SWAP1 DUP2 MSTORE PUSH1 0x1 PUSH1 0x20 MSTORE PUSH1 0x40 SWAP1 KECCAK256 PUSH1 0x3 ADD PUSH2 0x646 DUP7 DUP9 DUP4 PUSH2 0xF2B JUMP JUMPDEST POP CALLER PUSH0 SWAP1 DUP2 MSTORE PUSH1 0x1 PUSH1 0x20 MSTORE PUSH1 0x40 SWAP1 KECCAK256 PUSH1 0x4 ADD DUP1 SLOAD PUSH16 0xFFFFFFFFFFFFFFFF0000000000000000 NOT AND PUSH1 0x1 PUSH1 0x40 SHL TIMESTAMP PUSH8 0xFFFFFFFFFFFFFFFF AND MUL OR SWAP1 SSTORE DUP1 ISZERO PUSH2 0x6A5 JUMPI PUSH0 DUP2 DUP2 MSTORE PUSH1 0x2 PUSH1 0x20 MSTORE PUSH1 0x40 SWAP1 KECCAK256 DUP1 SLOAD PUSH1 0x1 PUSH1 0x1 PUSH1 0xA0 SHL SUB NOT AND CALLER OR SWAP1 SSTORE JUMPDEST CALLER PUSH1 0x1 PUSH1 0x1 PUSH1 0xA0 SHL SUB AND PUSH32 0x6420DAF1B58438E85465EF21DEE378D307A509CAAB491149E3F066C5CAF1266D DUP12 DUP12 DUP12 DUP12 DUP12 DUP12 PUSH1 0x40 MLOAD PUSH2 0x6E8 SWAP7 SWAP6 SWAP5 SWAP4 SWAP3 SWAP2 SWAP1 PUSH2 0xFE7 JUMP JUMPDEST PUSH1 0x40 MLOAD DUP1 SWAP2 SUB SWAP1 LOG2 POP POP POP POP POP POP POP POP POP POP JUMP JUMPDEST PUSH0 SLOAD PUSH1 0x1 PUSH1 0x1 PUSH1 0xA0 SHL SUB AND CALLER EQ PUSH2 0x741 JUMPI PUSH1 0x40 MLOAD PUSH3 0x461BCD PUSH1 0xE5 SHL DUP2 MSTORE PUSH1 0x20 PUSH1 0x4 DUP3 ADD MSTORE PUSH1 0x9 PUSH1 0x24 DUP3 ADD MSTORE PUSH9 0x3737BA1037BBB732B9 PUSH1 0xB9 SHL PUSH1 0x44 DUP3 ADD MSTORE PUSH1 0x64 ADD PUSH2 0x1CA JUMP JUMPDEST PUSH1 0x1 PUSH1 0x1 PUSH1 0xA0 SHL SUB DUP3 AND PUSH0 SWAP1 DUP2 MSTORE PUSH1 0x1 PUSH1 0x20 MSTORE PUSH1 0x40 SWAP1 KECCAK256 SLOAD PUSH1 0xFF AND PUSH2 0x799 JUMPI PUSH1 0x40 MLOAD PUSH3 0x461BCD PUSH1 0xE5 SHL DUP2 MSTORE PUSH1 0x20 PUSH1 0x4 DUP3 ADD MSTORE PUSH1 0xE PUSH1 0x24 DUP3 ADD MSTORE PUSH14 0x1D5CD95C881B9BDD08199BDD5B99 PUSH1 0x92 SHL PUSH1 0x44 DUP3 ADD MSTORE PUSH1 0x64 ADD PUSH2 0x1CA JUMP JUMPDEST PUSH1 0x1 PUSH1 0x1 PUSH1 0xA0 SHL SUB DUP3 AND PUSH0 DUP2 DUP2 MSTORE PUSH1 0x1 PUSH1 0x20 MSTORE PUSH1 0x40 SWAP1 DUP2 SWAP1 KECCAK256 DUP1 SLOAD DUP5 ISZERO ISZERO PUSH2 0x100 MUL PUSH2 0xFF00 NOT SWAP1 SWAP2 AND OR SWAP1 SSTORE MLOAD PUSH31 0x255232B9C7545C95A579E3B4ED6B224BCADD569379C69D9715D500ED93DA38 SWAP1 PUSH2 0x7F6 SWAP1 DUP5 ISZERO ISZERO DUP2 MSTORE PUSH1 0x20 ADD SWAP1 JUMP JUMPDEST PUSH1 0x40 MLOAD DUP1 SWAP2 SUB SWAP1 LOG2 POP POP JUMP JUMPDEST PUSH0 SLOAD PUSH1 0x1 PUSH1 0x1 PUSH1 0xA0 SHL SUB AND CALLER EQ PUSH2 0x847 JUMPI PUSH1 0x40 MLOAD PUSH3 0x461BCD PUSH1 0xE5 SHL DUP2 MSTORE PUSH1 0x20 PUSH1 0x4 DUP3 ADD MSTORE PUSH1 0x9 PUSH1 0x24 DUP3 ADD MSTORE PUSH9 0x3737BA1037BBB732B9 PUSH1 0xB9 SHL PUSH1 0x44 DUP3 ADD MSTORE PUSH1 0x64 ADD PUSH2 0x1CA JUMP JUMPDEST PUSH1 0x1 PUSH1 0x1 PUSH1 0xA0 SHL SUB DUP2 AND PUSH2 0x88A JUMPI PUSH1 0x40 MLOAD PUSH3 0x461BCD PUSH1 0xE5 SHL DUP2 MSTORE PUSH1 0x20 PUSH1 0x4 DUP3 ADD MSTORE PUSH1 0xA PUSH1 0x24 DUP3 ADD MSTORE PUSH10 0x3D32B9379037BBB732B9 PUSH1 0xB1 SHL PUSH1 0x44 DUP3 ADD MSTORE PUSH1 0x64 ADD PUSH2 0x1CA JUMP JUMPDEST PUSH0 DUP1 SLOAD PUSH1 0x1 PUSH1 0x1 PUSH1 0xA0 SHL SUB DUP4 DUP2 AND PUSH1 0x1 PUSH1 0x1 PUSH1 0xA0 SHL SUB NOT DUP4 AND DUP2 OR DUP5 SSTORE PUSH1 0x40 MLOAD SWAP2 SWAP1 SWAP3 AND SWAP3 DUP4 SWAP2 PUSH32 0x8BE0079C531659141344CD1FD0A4F28419497F9722A3DAAFE3B4186F6B6457E0 SWAP2 SWAP1 LOG3 POP POP JUMP JUMPDEST PUSH1 0x1 PUSH1 0x1 PUSH1 0xA0 SHL SUB DUP2 AND PUSH0 SWAP1 DUP2 MSTORE PUSH1 0x1 PUSH1 0x20 DUP2 SWAP1 MSTORE PUSH1 0x40 DUP3 KECCAK256 DUP1 SLOAD PUSH1 0x4 DUP3 ADD SLOAD SWAP3 DUP3 ADD DUP1 SLOAD DUP6 SWAP5 PUSH1 0x60 SWAP5 DUP6 SWAP5 DUP6 SWAP5 DUP9 SWAP5 DUP6 SWAP5 PUSH1 0xFF DUP1 DUP6 AND SWAP5 PUSH2 0x100 SWAP1 DIV AND SWAP3 SWAP2 PUSH1 0x2 DUP7 ADD SWAP2 PUSH1 0x3 DUP8 ADD SWAP2 PUSH8 0xFFFFFFFFFFFFFFFF DUP1 DUP4 AND SWAP3 PUSH1 0x1 PUSH1 0x40 SHL SWAP1 DIV AND SWAP1 DUP6 SWAP1 PUSH2 0x944 SWAP1 PUSH2 0xE38 JUMP JUMPDEST DUP1 PUSH1 0x1F ADD PUSH1 0x20 DUP1 SWAP2 DIV MUL PUSH1 0x20 ADD PUSH1 0x40 MLOAD SWAP1 DUP2 ADD PUSH1 0x40 MSTORE DUP1 SWAP3 SWAP2 SWAP1 DUP2 DUP2 MSTORE PUSH1 0x20 ADD DUP3 DUP1 SLOAD PUSH2 0x970 SWAP1 PUSH2 0xE38 JUMP JUMPDEST DUP1 ISZERO PUSH2 0x9BB JUMPI DUP1 PUSH1 0x1F LT PUSH2 0x992 JUMPI PUSH2 0x100 DUP1 DUP4 SLOAD DIV MUL DUP4 MSTORE SWAP2 PUSH1 0x20 ADD SWAP2 PUSH2 0x9BB JUMP JUMPDEST DUP3 ADD SWAP2 SWAP1 PUSH0 MSTORE PUSH1 0x20 PUSH0 KECCAK256 SWAP1 JUMPDEST DUP2 SLOAD DUP2 MSTORE SWAP1 PUSH1 0x1 ADD SWAP1 PUSH1 0x20 ADD DUP1 DUP4 GT PUSH2 0x99E JUMPI DUP3 SWAP1 SUB PUSH1 0x1F AND DUP3 ADD SWAP2 JUMPDEST POP POP POP POP POP SWAP5 POP DUP4 DUP1 SLOAD PUSH2 0x9CE SWAP1 PUSH2 0xE38 JUMP JUMPDEST DUP1 PUSH1 0x1F ADD PUSH1 0x20 DUP1 SWAP2 DIV MUL PUSH1 0x20 ADD PUSH1 0x40 MLOAD SWAP1 DUP2 ADD PUSH1 0x40 MSTORE DUP1 SWAP3 SWAP2 SWAP1 DUP2 DUP2 MSTORE PUSH1 0x20 ADD DUP3 DUP1 SLOAD PUSH2 0x9FA SWAP1 PUSH2 0xE38 JUMP JUMPDEST DUP1 ISZERO PUSH2 0xA45 JUMPI DUP1 PUSH1 0x1F LT PUSH2 0xA1C JUMPI PUSH2 0x100 DUP1 DUP4 SLOAD DIV MUL DUP4 MSTORE SWAP2 PUSH1 0x20 ADD SWAP2 PUSH2 0xA45 JUMP JUMPDEST DUP3 ADD SWAP2 SWAP1 PUSH0 MSTORE PUSH1 0x20 PUSH0 KECCAK256 SWAP1 JUMPDEST DUP2 SLOAD DUP2 MSTORE SWAP1 PUSH1 0x1 ADD SWAP1 PUSH1 0x20 ADD DUP1 DUP4 GT PUSH2 0xA28 JUMPI DUP3 SWAP1 SUB PUSH1 0x1F AND DUP3 ADD SWAP2 JUMPDEST POP POP POP POP POP SWAP4 POP DUP3 DUP1 SLOAD PUSH2 0xA58 SWAP1 PUSH2 0xE38 JUMP JUMPDEST DUP1 PUSH1 0x1F ADD PUSH1 0x20 DUP1 SWAP2 DIV MUL PUSH1 0x20 ADD PUSH1 0x40 MLOAD SWAP1 DUP2 ADD PUSH1 0x40 MSTORE DUP1 SWAP3 SWAP2 SWAP1 DUP2 DUP2 MSTORE PUSH1 0x20 ADD DUP3 DUP1 SLOAD PUSH2 0xA84 SWAP1 PUSH2 0xE38 JUMP JUMPDEST DUP1 ISZERO PUSH2 0xACF JUMPI DUP1 PUSH1 0x1F LT PUSH2 0xAA6 JUMPI PUSH2 0x100 DUP1 DUP4 SLOAD DIV MUL DUP4 MSTORE SWAP2 PUSH1 0x20 ADD SWAP2 PUSH2 0xACF JUMP JUMPDEST DUP3 ADD SWAP2 SWAP1 PUSH0 MSTORE PUSH1 0x20 PUSH0 KECCAK256 SWAP1 JUMPDEST DUP2 SLOAD DUP2 MSTORE SWAP1 PUSH1 0x1 ADD SWAP1 PUSH1 0x20 ADD DUP1 DUP4 GT PUSH2 0xAB2 JUMPI DUP3 SWAP1 SUB PUSH1 0x1F AND DUP3 ADD SWAP2 JUMPDEST POP POP POP POP POP SWAP3 POP SWAP8 POP SWAP8 POP SWAP8 POP SWAP8 POP SWAP8 POP SWAP8 POP SWAP8 POP POP SWAP2 SWAP4 SWAP6 SWAP8 SWAP1 SWAP3 SWAP5 SWAP7 POP JUMP JUMPDEST PUSH0 DUP3 DUP3 DUP1 DUP1 DUP5 SUB PUSH2 0xB06 JUMPI PUSH0 SWAP4 POP POP POP POP PUSH2 0xBFA JUMP JUMPDEST PUSH0 DUP1 PUSH0 JUMPDEST DUP4 DUP2 LT ISZERO PUSH2 0xBF1 JUMPI PUSH0 DUP7 DUP7 DUP4 DUP2 DUP2 LT PUSH2 0xB25 JUMPI PUSH2 0xB25 PUSH2 0xE00 JUMP JUMPDEST SWAP1 SWAP2 ADD CALLDATALOAD PUSH1 0x1 PUSH1 0x1 PUSH1 0xF8 SHL SUB NOT AND SWAP2 POP PUSH0 SWAP1 POP PUSH1 0x1 PUSH1 0xFD SHL DUP3 EQ DUP1 PUSH2 0xB57 JUMPI POP PUSH1 0x5 PUSH1 0xF9 SHL PUSH1 0x1 PUSH1 0x1 PUSH1 0xF8 SHL SUB NOT DUP4 AND EQ JUMPDEST DUP1 PUSH2 0xB6F JUMPI POP PUSH1 0xD PUSH1 0xF8 SHL PUSH1 0x1 PUSH1 0x1 PUSH1 0xF8 SHL SUB NOT DUP4 AND EQ JUMPDEST DUP1 PUSH2 0xB87 JUMPI POP PUSH1 0x9 PUSH1 0xF8 SHL PUSH1 0x1 PUSH1 0x1 PUSH1 0xF8 SHL SUB NOT DUP4 AND EQ JUMPDEST SWAP1 POP DUP1 ISZERO DUP1 ISZERO PUSH2 0xB95 JUMPI POP DUP4 ISZERO JUMPDEST ISZERO PUSH2 0xBC9 JUMPI PUSH1 0x1 SWAP4 POP DUP5 PUSH2 0xBA8 DUP2 PUSH2 0xE14 JUMP JUMPDEST SWAP6 POP POP PUSH1 0x64 DUP6 GT ISZERO PUSH2 0xBC4 JUMPI DUP5 SWAP9 POP POP POP POP POP POP POP POP POP PUSH2 0xBFA JUMP JUMPDEST PUSH2 0xBDC JUMP JUMPDEST DUP1 DUP1 ISZERO PUSH2 0xBD3 JUMPI POP DUP4 JUMPDEST ISZERO PUSH2 0xBDC JUMPI PUSH0 SWAP4 POP JUMPDEST POP POP DUP1 DUP1 PUSH2 0xBE9 SWAP1 PUSH2 0xE14 JUMP JUMPDEST SWAP2 POP POP PUSH2 0xB0A JUMP JUMPDEST POP SWAP1 SWAP5 POP POP POP POP POP JUMPDEST SWAP3 SWAP2 POP POP JUMP JUMPDEST PUSH0 DUP1 DUP4 PUSH1 0x1F DUP5 ADD SLT PUSH2 0xC10 JUMPI PUSH0 DUP1 REVERT JUMPDEST POP DUP2 CALLDATALOAD PUSH8 0xFFFFFFFFFFFFFFFF DUP2 GT ISZERO PUSH2 0xC27 JUMPI PUSH0 DUP1 REVERT JUMPDEST PUSH1 0x20 DUP4 ADD SWAP2 POP DUP4 PUSH1 0x20 DUP3 DUP6 ADD ADD GT ISZERO PUSH2 0xC3E JUMPI PUSH0 DUP1 REVERT JUMPDEST SWAP3 POP SWAP3 SWAP1 POP JUMP JUMPDEST PUSH0 DUP1 PUSH0 DUP1 PUSH0 DUP1 PUSH1 0x60 DUP8 DUP10 SUB SLT ISZERO PUSH2 0xC5A JUMPI PUSH0 DUP1 REVERT JUMPDEST DUP7 CALLDATALOAD PUSH8 0xFFFFFFFFFFFFFFFF DUP1 DUP3 GT ISZERO PUSH2 0xC71 JUMPI PUSH0 DUP1 REVERT JUMPDEST PUSH2 0xC7D DUP11 DUP4 DUP12 ADD PUSH2 0xC00 JUMP JUMPDEST SWAP1 SWAP9 POP SWAP7 POP PUSH1 0x20 DUP10 ADD CALLDATALOAD SWAP2 POP DUP1 DUP3 GT ISZERO PUSH2 0xC95 JUMPI PUSH0 DUP1 REVERT JUMPDEST PUSH2 0xCA1 DUP11 DUP4 DUP12 ADD PUSH2 0xC00 JUMP JUMPDEST SWAP1 SWAP7 POP SWAP5 POP PUSH1 0x40 DUP10 ADD CALLDATALOAD SWAP2 POP DUP1 DUP3 GT ISZERO PUSH2 0xCB9 JUMPI PUSH0 DUP1 REVERT JUMPDEST POP PUSH2 0xCC6 DUP10 DUP3 DUP11 ADD PUSH2 0xC00 JUMP JUMPDEST SWAP8 SWAP11 SWAP7 SWAP10 POP SWAP5 SWAP8 POP SWAP3 SWAP6 SWAP4 SWAP5 SWAP3 POP POP POP JUMP JUMPDEST DUP1 CALLDATALOAD PUSH1 0x1 PUSH1 0x1 PUSH1 0xA0 SHL SUB DUP2 AND DUP2 EQ PUSH2 0xCEE JUMPI PUSH0 DUP1 REVERT JUMPDEST SWAP2 SWAP1 POP JUMP JUMPDEST PUSH0 DUP1 PUSH1 0x40 DUP4 DUP6 SUB SLT ISZERO PUSH2 0xD04 JUMPI PUSH0 DUP1 REVERT JUMPDEST PUSH2 0xD0D DUP4 PUSH2 0xCD8 JUMP JUMPDEST SWAP2 POP PUSH1 0x20 DUP4 ADD CALLDATALOAD DUP1 ISZERO ISZERO DUP2 EQ PUSH2 0xD21 JUMPI PUSH0 DUP1 REVERT JUMPDEST DUP1 SWAP2 POP POP SWAP3 POP SWAP3 SWAP1 POP JUMP JUMPDEST PUSH0 PUSH1 0x20 DUP3 DUP5 SUB SLT ISZERO PUSH2 0xD3C JUMPI PUSH0 DUP1 REVERT JUMPDEST PUSH2 0xD45 DUP3 PUSH2 0xCD8 JUMP JUMPDEST SWAP4 SWAP3 POP POP POP JUMP JUMPDEST PUSH0 DUP2 MLOAD DUP1 DUP5 MSTORE PUSH0 JUMPDEST DUP2 DUP2 LT ISZERO PUSH2 0xD70 JUMPI PUSH1 0x20 DUP2 DUP6 ADD DUP2 ADD MLOAD DUP7 DUP4 ADD DUP3 ADD MSTORE ADD PUSH2 0xD54 JUMP JUMPDEST POP PUSH0 PUSH1 0x20 DUP3 DUP7 ADD ADD MSTORE PUSH1 0x20 PUSH1 0x1F NOT PUSH1 0x1F DUP4 ADD AND DUP6 ADD ADD SWAP2 POP POP SWAP3 SWAP2 POP POP JUMP JUMPDEST DUP8 ISZERO ISZERO DUP2 MSTORE DUP7 ISZERO ISZERO PUSH1 0x20 DUP3 ADD MSTORE PUSH1 0xE0 PUSH1 0x40 DUP3 ADD MSTORE PUSH0 PUSH2 0xDB1 PUSH1 0xE0 DUP4 ADD DUP9 PUSH2 0xD4C JUMP JUMPDEST DUP3 DUP2 SUB PUSH1 0x60 DUP5 ADD MSTORE PUSH2 0xDC3 DUP2 DUP9 PUSH2 0xD4C JUMP JUMPDEST SWAP1 POP DUP3 DUP2 SUB PUSH1 0x80 DUP5 ADD MSTORE PUSH2 0xDD7 DUP2 DUP8 PUSH2 0xD4C JUMP JUMPDEST SWAP2 POP POP PUSH8 0xFFFFFFFFFFFFFFFF DUP1 DUP6 AND PUSH1 0xA0 DUP5 ADD MSTORE DUP1 DUP5 AND PUSH1 0xC0 DUP5 ADD MSTORE POP SWAP9 SWAP8 POP POP POP POP POP POP POP POP JUMP JUMPDEST PUSH4 0x4E487B71 PUSH1 0xE0 SHL PUSH0 MSTORE PUSH1 0x32 PUSH1 0x4 MSTORE PUSH1 0x24 PUSH0 REVERT JUMPDEST PUSH0 PUSH1 0x1 DUP3 ADD PUSH2 0xE31 JUMPI PUSH4 0x4E487B71 PUSH1 0xE0 SHL PUSH0 MSTORE PUSH1 0x11 PUSH1 0x4 MSTORE PUSH1 0x24 PUSH0 REVERT JUMPDEST POP PUSH1 0x1 ADD SWAP1 JUMP JUMPDEST PUSH1 0x1 DUP2 DUP2 SHR SWAP1 DUP3 AND DUP1 PUSH2 0xE4C JUMPI PUSH1 0x7F DUP3 AND SWAP2 POP JUMPDEST PUSH1 0x20 DUP3 LT DUP2 SUB PUSH2 0xE6A JUMPI PUSH4 0x4E487B71 PUSH1 0xE0 SHL PUSH0 MSTORE PUSH1 0x22 PUSH1 0x4 MSTORE PUSH1 0x24 PUSH0 REVERT JUMPDEST POP SWAP2 SWAP1 POP JUMP JUMPDEST DUP2 DUP4 MSTORE DUP2 DUP2 PUSH1 0x20 DUP6 ADD CALLDATACOPY POP PUSH0 DUP3 DUP3 ADD PUSH1 0x20 SWAP1 DUP2 ADD SWAP2 SWAP1 SWAP2 MSTORE PUSH1 0x1F SWAP1 SWAP2 ADD PUSH1 0x1F NOT AND SWAP1 SWAP2 ADD ADD SWAP1 JUMP JUMPDEST PUSH1 0x40 DUP2 MSTORE PUSH0 PUSH2 0xEAB PUSH1 0x40 DUP4 ADD DUP7 DUP9 PUSH2 0xE70 JUMP JUMPDEST DUP3 DUP2 SUB PUSH1 0x20 DUP5 ADD MSTORE PUSH2 0xEBE DUP2 DUP6 DUP8 PUSH2 0xE70 JUMP JUMPDEST SWAP8 SWAP7 POP POP POP POP POP POP POP JUMP JUMPDEST PUSH4 0x4E487B71 PUSH1 0xE0 SHL PUSH0 MSTORE PUSH1 0x41 PUSH1 0x4 MSTORE PUSH1 0x24 PUSH0 REVERT JUMPDEST PUSH1 0x1F DUP3 GT ISZERO PUSH2 0xF26 JUMPI PUSH0 DUP2 DUP2 MSTORE PUSH1 0x20 DUP2 KECCAK256 PUSH1 0x1F DUP6 ADD PUSH1 0x5 SHR DUP2 ADD PUSH1 0x20 DUP7 LT ISZERO PUSH2 0xF03 JUMPI POP DUP1 JUMPDEST PUSH1 0x1F DUP6 ADD PUSH1 0x5 SHR DUP3 ADD SWAP2 POP JUMPDEST DUP2 DUP2 LT ISZERO PUSH2 0xF22 JUMPI DUP3 DUP2 SSTORE PUSH1 0x1 ADD PUSH2 0xF0F JUMP JUMPDEST POP POP POP JUMPDEST POP POP POP JUMP JUMPDEST PUSH8 0xFFFFFFFFFFFFFFFF DUP4 GT ISZERO PUSH2 0xF43 JUMPI PUSH2 0xF43 PUSH2 0xEC9 JUMP JUMPDEST PUSH2 0xF57 DUP4 PUSH2 0xF51 DUP4 SLOAD PUSH2 0xE38 JUMP JUMPDEST DUP4 PUSH2 0xEDD JUMP JUMPDEST PUSH0 PUSH1 0x1F DUP5 GT PUSH1 0x1 DUP2 EQ PUSH2 0xF88 JUMPI PUSH0 DUP6 ISZERO PUSH2 0xF71 JUMPI POP DUP4 DUP3 ADD CALLDATALOAD JUMPDEST PUSH0 NOT PUSH1 0x3 DUP8 SWAP1 SHL SHR NOT AND PUSH1 0x1 DUP7 SWAP1 SHL OR DUP4 SSTORE PUSH2 0xFE0 JUMP JUMPDEST PUSH0 DUP4 DUP2 MSTORE PUSH1 0x20 SWAP1 KECCAK256 PUSH1 0x1F NOT DUP7 AND SWAP1 DUP4 JUMPDEST DUP3 DUP2 LT ISZERO PUSH2 0xFB8 JUMPI DUP7 DUP6 ADD CALLDATALOAD DUP3 SSTORE PUSH1 0x20 SWAP5 DUP6 ADD SWAP5 PUSH1 0x1 SWAP1 SWAP3 ADD SWAP2 ADD PUSH2 0xF98 JUMP JUMPDEST POP DUP7 DUP3 LT ISZERO PUSH2 0xFD4 JUMPI PUSH0 NOT PUSH1 0xF8 DUP9 PUSH1 0x3 SHL AND SHR NOT DUP5 DUP8 ADD CALLDATALOAD AND DUP2 SSTORE JUMPDEST POP POP PUSH1 0x1 DUP6 PUSH1 0x1 SHL ADD DUP4 SSTORE JUMPDEST POP POP POP POP POP JUMP JUMPDEST PUSH1 0x60 DUP2 MSTORE PUSH0 PUSH2 0xFFA PUSH1 0x60 DUP4 ADD DUP9 DUP11 PUSH2 0xE70 JUMP JUMPDEST DUP3 DUP2 SUB PUSH1 0x20 DUP5 ADD MSTORE PUSH2 0x100D DUP2 DUP8 DUP10 PUSH2 0xE70 JUMP JUMPDEST SWAP1 POP DUP3 DUP2 SUB PUSH1 0x40 DUP5 ADD MSTORE PUSH2 0x1022 DUP2 DUP6 DUP8 PUSH2 0xE70 JUMP JUMPDEST SWAP10 SWAP9 POP POP POP POP POP POP POP POP POP JUMP INVALID LOG2 PUSH5 0x6970667358 0x22 SLT KECCAK256 0x26 CODECOPY SIGNEXTEND 0xC9 PUSH20 0x8E8FB32D99E4363F811F08A9EB95B190FF8E8E98 DUP11 0xD6 0xC0 0xD6 JUMPDEST SHL STOP PUSH5 0x736F6C6343 STOP ADDMOD EQ STOP CALLER "
		},
		"gasEstimates": {
			"creation": {
				"codeDepositCost": "839400",
				"executionCost": "25109",
				"totalCost": "864509"
			},
			"external": {
				"MAX_BIO_BYTES()": "205",
				"MAX_BIO_WORDS()": "227",
				"MAX_USERNAME_LENGTH()": "228",
				"MIN_USERNAME_LENGTH()": "206",
				"getUserData(address)": "infinite",
				"owner()": "2402",
				"setVerified(address,bool)": "30501",
				"transferOwnership(address)": "28342",
				"updateProfile(string,string,string)": "infinite"
			},
			"internal": {
				"_countWords(string calldata)": "infinite"
			}
		},
		"methodIdentifiers": {
			"MAX_BIO_BYTES()": "a9e5ec90",
			"MAX_BIO_WORDS()": "cb6d1236",
			"MAX_USERNAME_LENGTH()": "1cd896c1",
			"MIN_USERNAME_LENGTH()": "155b1d98",
			"getUserData(address)": "ffc9896b",
			"owner()": "8da5cb5b",
			"setVerified(address,bool)": "9cf5c613",
			"transferOwnership(address)": "f2fde38b",
			"updateProfile(string,string,string)": "1105a5eb"
		}
	},
	"abi": [
		{
			"inputs": [],
			"stateMutability": "nonpayable",
			"type": "constructor"
		},
		{
			"anonymous": false,
			"inputs": [
				{
					"indexed": true,
					"internalType": "address",
					"name": "previousOwner",
					"type": "address"
				},
				{
					"indexed": true,
					"internalType": "address",
					"name": "newOwner",
					"type": "address"
				}
			],
			"name": "OwnershipTransferred",
			"type": "event"
		},
		{
			"anonymous": false,
			"inputs": [
				{
					"indexed": true,
					"internalType": "address",
					"name": "user",
					"type": "address"
				},
				{
					"indexed": false,
					"internalType": "string",
					"name": "name",
					"type": "string"
				},
				{
					"indexed": false,
					"internalType": "string",
					"name": "username",
					"type": "string"
				},
				{
					"indexed": false,
					"internalType": "string",
					"name": "bio",
					"type": "string"
				}
			],
			"name": "ProfileUpdated",
			"type": "event"
		},
		{
			"anonymous": false,
			"inputs": [
				{
					"indexed": true,
					"internalType": "address",
					"name": "user",
					"type": "address"
				},
				{
					"indexed": false,
					"internalType": "string",
					"name": "name",
					"type": "string"
				},
				{
					"indexed": false,
					"internalType": "string",
					"name": "username",
					"type": "string"
				}
			],
			"name": "UserRegistered",
			"type": "event"
		},
		{
			"anonymous": false,
			"inputs": [
				{
					"indexed": true,
					"internalType": "address",
					"name": "user",
					"type": "address"
				},
				{
					"indexed": false,
					"internalType": "bool",
					"name": "isVerified",
					"type": "bool"
				}
			],
			"name": "VerificationUpdated",
			"type": "event"
		},
		{
			"inputs": [],
			"name": "MAX_BIO_BYTES",
			"outputs": [
				{
					"internalType": "uint256",
					"name": "",
					"type": "uint256"
				}
			],
			"stateMutability": "view",
			"type": "function"
		},
		{
			"inputs": [],
			"name": "MAX_BIO_WORDS",
			"outputs": [
				{
					"internalType": "uint256",
					"name": "",
					"type": "uint256"
				}
			],
			"stateMutability": "view",
			"type": "function"
		},
		{
			"inputs": [],
			"name": "MAX_USERNAME_LENGTH",
			"outputs": [
				{
					"internalType": "uint256",
					"name": "",
					"type": "uint256"
				}
			],
			"stateMutability": "view",
			"type": "function"
		},
		{
			"inputs": [],
			"name": "MIN_USERNAME_LENGTH",
			"outputs": [
				{
					"internalType": "uint256",
					"name": "",
					"type": "uint256"
				}
			],
			"stateMutability": "view",
			"type": "function"
		},
		{
			"inputs": [
				{
					"internalType": "address",
					"name": "user",
					"type": "address"
				}
			],
			"name": "getUserData",
			"outputs": [
				{
					"internalType": "bool",
					"name": "isRegistered",
					"type": "bool"
				},
				{
					"internalType": "bool",
					"name": "isVerified",
					"type": "bool"
				},
				{
					"internalType": "string",
					"name": "name",
					"type": "string"
				},
				{
					"internalType": "string",
					"name": "username",
					"type": "string"
				},
				{
					"internalType": "string",
					"name": "bio",
					"type": "string"
				},
				{
					"internalType": "uint64",
					"name": "joinedAt",
					"type": "uint64"
				},
				{
					"internalType": "uint64",
					"name": "lastActive",
					"type": "uint64"
				}
			],
			"stateMutability": "view",
			"type": "function"
		},
		{
			"inputs": [],
			"name": "owner",
			"outputs": [
				{
					"internalType": "address",
					"name": "",
					"type": "address"
				}
			],
			"stateMutability": "view",
			"type": "function"
		},
		{
			"inputs": [
				{
					"internalType": "address",
					"name": "user",
					"type": "address"
				},
				{
					"internalType": "bool",
					"name": "verified",
					"type": "bool"
				}
			],
			"name": "setVerified",
			"outputs": [],
			"stateMutability": "nonpayable",
			"type": "function"
		},
		{
			"inputs": [
				{
					"internalType": "address",
					"name": "newOwner",
					"type": "address"
				}
			],
			"name": "transferOwnership",
			"outputs": [],
			"stateMutability": "nonpayable",
			"type": "function"
		},
		{
			"inputs": [
				{
					"internalType": "string",
					"name": "_name",
					"type": "string"
				},
				{
					"internalType": "string",
					"name": "_username",
					"type": "string"
				},
				{
					"internalType": "string",
					"name": "_bio",
					"type": "string"
				}
			],
			"name": "updateProfile",
			"outputs": [],
			"stateMutability": "nonpayable",
			"type": "function"
		}
	]
}